:100000000C9434000C9451000C9451000C94510049
:100010000C9451000C9451000C9451000C9451001C
:100020000C9451000C9451000C9451000C9451000C
:100030000C9451000C9451000C9451000C945100FC
:100040000C9451000C9451000C9451000C945100EC
:100050000C9451000C9451000C9451000C945100DC
:100060000C9451000C94510011241FBECFEFD8E026
:10007000DEBFCDBF12E0A8E0B2E001C01D92A63104
:10008000B107E1F712E0A0E0B1E0E4ECF8E102C072
:1000900005900D92A830B107D9F70E94A6020C94E2
:1000A000600C0C940000DF93CF93CDB7DEB7ECE784
:1000B000F0E080E48083EBE7F0E01082EAE7F0E034
:1000C00087E08083CF91DF910895DF93CF9300D0B5
:1000D000CDB7DEB7ACE7B0E0ECE7F0E080818B7F36
:1000E0008C93ACE7B0E0ECE7F0E080818D7F8C93FF
:1000F000ACE7B0E0ECE7F0E080818E7F8C93AAE77C
:10010000B0E0EAE7F0E0808180688C93AAE7B0E095
:10011000EAE7F0E0808180648C93EAE7F0E0808198
:10012000882F90E0807490700097B9F7E8E7F0E0CE
:10013000808191819A838983AAE7B0E0EAE7F0E0C1
:1001400080818F778C9389819A810F900F90CF91C6
:10015000DF910895DF93CF9300D0CDB7DEB7ACE742
:10016000B0E0ECE7F0E080818B7F8C93ACE7B0E00F
:10017000ECE7F0E080818D7F8C93ACE7B0E0ECE7BA
:10018000F0E0808181608C93AAE7B0E0EAE7F0E0DC
:10019000808180688C93AAE7B0E0EAE7F0E0808194
:1001A00080648C93EAE7F0E08081882F90E080748F
:1001B00090700097B9F7E8E7F0E0808191819A8329
:1001C0008983AAE7B0E0EAE7F0E080818F778C933B
:1001D00089819A810F900F90CF91DF910895DF93DD
:1001E000CF9300D0CDB7DEB7ACE7B0E0ECE7F0E0FE
:1001F00080818B7F8C93ACE7B0E0ECE7F0E080810E
:1002000082608C93ACE7B0E0ECE7F0E080818E7F19
:100210008C93AAE7B0E0EAE7F0E0808180688C93F5
:10022000AAE7B0E0EAE7F0E0808180648C93EAE737
:10023000F0E08081882F90E0807490700097B9F78B
:10024000E8E7F0E0808191819A838983AAE7B0E0B2
:10025000EAE7F0E080818F778C9389819A810F9013
:100260000F90CF91DF910895DF93CF9300D0CDB75A
:10027000DEB7ACE7B0E0ECE7F0E080818B7F8C93F9
:10028000ACE7B0E0ECE7F0E0808182608C93ACE713
:10029000B0E0ECE7F0E0808181608C93AAE7B0E009
:1002A000EAE7F0E0808180688C93AAE7B0E0EAE7B3
:1002B000F0E0808180648C93EAE7F0E08081882F11
:1002C00090E0807490700097B9F7E8E7F0E08081E3
:1002D00091819A838983AAE7B0E0EAE7F0E0808120
:1002E0008F778C9389819A810F900F90CF91DF91B6
:1002F0000895DF93CF9300D0CDB7DEB7ACE7B0E081
:10030000ECE7F0E0808184608C93ACE7B0E0ECE750
:10031000F0E080818D7F8C93ACE7B0E0ECE7F0E01B
:1003200080818E7F8C93AAE7B0E0EAE7F0E08081DD
:1003300080688C93AAE7B0E0EAE7F0E0808180640F
:100340008C93EAE7F0E08081882F90E080749070D1
:100350000097B9F7E8E7F0E0808191819A8389837B
:10036000AAE7B0E0EAE7F0E080818F778C9389819B
:100370009A810F900F90CF91DF910895DF93CF93E3
:1003800000D0CDB7DEB7ACE7B0E0ECE7F0E08081BD
:1003900084608C93ACE7B0E0ECE7F0E080818D7F87
:1003A0008C93ACE7B0E0ECE7F0E0808181608C9367
:1003B000AAE7B0E0EAE7F0E0808180688C93AAE7E2
:1003C000B0E0EAE7F0E0808180648C93EAE7F0E057
:1003D0008081882F90E0807490700097B9F7E8E7EB
:1003E000F0E0808191819A838983AAE7B0E0EAE70F
:1003F000F0E080818F778C9389819A810F900F90A4
:10040000CF91DF910895DF93CF9300D0CDB7DEB7C2
:1004100089836A838A818130A1F4AAE2B0E0EAE2AA
:10042000F0E08081482F8981282F30E081E090E042
:10043000022E02C0880F991F0A94E2F7842B8C9336
:1004400026C0AAE2B0E0EAE2F0E08081482F89818C
:10045000282F30E081E090E002C0880F991F2A9594
:10046000E2F7809584238C93ABE2B0E0EBE2F0E01E
:100470008081482F8981282F30E081E090E0022E92
:1004800002C0880F991F0A94E2F7842B8C930F9077
:100490000F90CF91DF910895DF93CF9300D0CDB728
:1004A000DEB789836A838A818130A1F4ABE2B0E050
:1004B000EBE2F0E08081482F8981282F30E081E055
:1004C00090E0022E02C0880F991F0A94E2F7842B55
:1004D0008C9314C0ABE2B0E0EBE2F0E08081482FF7
:1004E0008981282F30E081E090E0022E02C0880F41
:1004F000991F0A94E2F7809584238C930F900F90B4
:10050000CF91DF910895DF93CF9300D0CDB7DEB7C1
:100510008983E9E2F0E08081282F30E08981882F0B
:1005200090E0A90102C0559547958A95E2F7CA0166
:1005300081709070882319F051E05A8301C01A82AB
:100540008A810F900F90CF91DF910895DF93CF9321
:1005500000D00F92CDB7DEB70E94E2050E94EF05F2
:100560008B830E9420069A8389838B81813039F4A2
:100570000E9412060E9444050E947C05EFCF8B81E9
:10058000882369F489819A8123E08433920738F0C3
:100590000E94FD050E9444050E947C05DFCF0E9459
:1005A00028050E9460050E9412060E9498050E947C
:1005B000EB030E94DC02D2CFEF92FF920F931F93C6
:1005C000DF93CF93CDB7DEB780910D0290910E02ED
:1005D000CC01A0E0B0E0BC01CD010E949409DC0197
:1005E000CB01BC01CD0123E333E343E251E40E949C
:1005F0000608DC01CB017C018D0180911302882F5C
:1006000090E0AA2797FDA095BA2FBC01CD010E94CA
:10061000E2089B01AC01C801B7010E94D907DC01C7
:10062000CB01BC01CD010E943006DC01CB018093DF
:10063000120280910F0290911002CC01A0E0B0E074
:10064000BC01CD010E949409DC01CB01BC01CD01AC
:1006500023E333E343E251E40E940608DC01CB01CB
:100660007C018D0180911302882F90E0AA2797FDCD
:10067000A095BA2FBC01CD010E94E2089B01AC01FC
:10068000C801B7010E94D907DC01CB01BC01CD0133
:100690000E943006DC01CB0180931102809114028C
:1006A00090911502CC01A0E0B0E0BC01CD010E9408
:1006B0009409DC01CB01BC01CD0123E333E343E228
:1006C00051E40E940608DC01CB017C018D01809180
:1006D0000C02882F90E0AA2797FDA095BA2FBC01A5
:1006E000CD010E94E2089B01AC01C801B7010E9444
:1006F000D907DC01CB01BC01CD010E943006DC0131
:10070000CB0180930A028091080290910902CC01EA
:10071000A0E0B0E0BC01CD010E949409DC01CB0156
:10072000BC01CD0123E333E343E251E40E94060818
:10073000DC01CB017C018D0180910C02882F90E0BF
:10074000AA2797FDA095BA2FBC01CD010E94E2080F
:100750009B01AC01C801B7010E94D907DC01CB01A4
:10076000BC01CD010E943006DC01CB0180930B025D
:1007700080911202853618F084E6809312028091EF
:100780000A02853618F084E680930A0280911102ED
:10079000853618F084E68093110280910B0285362D
:1007A00018F084E680930B02809112020E94940458
:1007B00080910A020E94B904809111020E94DE0415
:1007C00080910B020E940305CF91DF911F910F9141
:1007D000FF90EF900895DF93CF9300D0CDB7DEB7B1
:1007E0000E94BE019A83898389819A8122E08331A4
:1007F0009207A0F089819A8122E132E0B9010E943A
:10080000020C9A83898389819A812EE130E0B901B3
:100810000E94020CCB0180930C021FC089819A8137
:1008200041E0843F9407A8F424EF31E089819A8164
:10083000A901481B590BCA019A83898389819A812E
:100840002EE130E0B9010E94020CCB01809313022B
:1008500004C010920C02109213020F900F90CF91CF
:10086000DF910895DF93CF93CDB7DEB7AAE2B0E072
:10087000EAE2F0E0808180628C93AAE2B0E0EAE2F2
:10088000F0E0808180648C93A4E4B0E0E4E4F0E0E4
:10089000808181608C93A4E4B0E0E4E4F0E08081A6
:1008A0008D7F8C93A5E4B0E0E5E4F0E08081877F64
:1008B0008C93A4E4B0E0E4E4F0E08081806F8C935A
:1008C000CF91DF910895DF93CF93CDB7DEB7AAE242
:1008D000B0E0EAE2F0E0808188608C93A4E2B0E0CE
:1008E000E4E2F0E0808188608C93A0EBB0E0E0EB84
:1008F000F0E0808181608C93A0EBB0E0E0EBF0E071
:1009000080818D7F8C93A1EBB0E0E1EBF0E0808102
:10091000877F8C93A0EBB0E0E0EBF0E08081806F0C
:100920008C93CF91DF910895DF93CF930F92CDB742
:10093000DEB78983E7E4F0E08981482F50E0CA01FF
:100940009C01220F331FC9019695982F88279795F0
:100950008795821B930B840F951F24E630E0B90125
:100960000E94160CCB01809580830F90CF91DF9170
:100970000895DF93CF930F92CDB7DEB78983E8E474
:10098000F0E08981482F50E0CA019C01220F331FFB
:10099000C9019695982F882797958795821B930B69
:1009A000840F951F24E630E0B9010E94160CCB019C
:1009B000809580830F90CF91DF910895DF93CF933F
:1009C0000F92CDB7DEB78983E3EBF0E08981482F42
:1009D00050E0CA019C01220F331FC9019695982F40
:1009E000882797958795821B930B840F951F24E684
:1009F00030E0B9010E94160CCB01809580830F90E6
:100A0000CF91DF910895DF93CF930F92CDB7DEB7EB
:100A10008983E4EBF0E08981482F50E0CA019C0112
:100A2000220F331FC9019695982F88279795879590
:100A3000821B930B840F951F24E630E0B9010E94BE
:100A4000160CCB01809580830F90CF91DF91089594
:100A5000DF93CF93CDB7DEB7A5E4B0E0E5E4F0E0F7
:100A6000808184608C93A5E4B0E0E5E4F0E08081CF
:100A70008D7F8C93A5E4B0E0E5E4F0E080818160B7
:100A80008C93CF91DF910895DF93CF93CDB7DEB7ED
:100A9000A5E4B0E0E5E4F0E080818B7F8C93A5E4F1
:100AA000B0E0E5E4F0E080818D7F8C93A5E4B0E0D8
:100AB000E5E4F0E080818E7F8C93CF91DF91089503
:100AC000DF93CF93CDB7DEB7A1EBB0E0E1EBF0E081
:100AD000808184608C93A1EBB0E0E1EBF0E0808159
:100AE00082608C93A1EBB0E0E1EBF0E0808181606B
:100AF0008C93CF91DF910895DF93CF93CDB7DEB77D
:100B0000A1EBB0E0E1EBF0E080818B7F8C93A1EB77
:100B1000B0E0E1EBF0E080818D7F8C93A1EBB0E061
:100B2000E1EBF0E080818E7F8C93CF91DF9108958F
:100B3000DF93CF93CDB7DEB70E94AA0090930E0249
:100B400080930D020E94EF0090931502809314028F
:100B50000E9434019093100280930F020E94790149
:100B60009093090280930802CF91DF910895DF935B
:100B7000CF93CDB7DEB780E061E00E94030281E051
:100B800061E00E94030282E061E00E94030284E0CF
:100B900060E00E940302CF91DF910895DF93CF932D
:100BA000CDB7DEB70E9432040E946304CF91DF917B
:100BB0000895DF93CF93CDB7DEB70E945300CF9156
:100BC000DF910895DF93CF93CDB7DEB70E94B705CD
:100BD0000E94CE050E94D905CF91DF910895DF9341
:100BE000CF930F92CDB7DEB784E00E948302898352
:100BF00089810F90CF91DF910895DF93CF93CDB787
:100C0000DEB7A7E2B0E0E7E2F0E0808180648C9399
:100C1000A8E2B0E0E8E2F0E0808180648C93CF91BC
:100C2000DF910895DF93CF93CDB7DEB7A8E2B0E0B0
:100C3000E8E2F0E080818F7B8C93CF91DF91089583
:100C4000DF93CF9300D0CDB7DEB70E9465009A83C3
:100C5000898389819A810F900F90CF91DF910895B8
:100C6000EF92FF920F931F937B018C0120E030E005
:100C700040E05FE40E94B20888238CF0C801B7010D
:100C800020E030E040E05FE40E94A8070E944009B5
:100C90009B01AC01205030404040504806C0C80184
:100CA000B7010E9440099B01AC01B901CA011F9123
:100CB0000F91FF90EF900895A0E0B0E0E2E6F6E03B
:100CC0000C94290CDC012B01FA019C91923008F460
:100CD00039C1EB018881823008F433C1943069F462
:100CE000843009F02FC111969C9111978981981732
:100CF00009F428C1A0E0B1E025C1843009F421C184
:100D00008230A9F4923009F01DC19A01AD0188E04A
:100D1000EA010990AE01E90109929E018150C1F7F3
:100D2000E201898111969C918923818308C19230C7
:100D300009F407C112962D903C901397EB018A811C
:100D40009B811496AD90BD90CD90DC901797EC8070
:100D5000FD800E811F819101281B390BB90137FFDE
:100D600004C066277727621B730B603271050CF095
:100D700061C0121613066CF537014801062E04C037
:100D800096948794779467940A94D2F721E030E0A0
:100D900040E050E004C0220F331F441F551F6A95E6
:100DA000D2F721503040404050402E213F21402377
:100DB0005123211531054105510521F021E030E095
:100DC00040E050E079018A01E628F728082919292E
:100DD0003CC0232BD1F1260E371E35014601062ECD
:100DE00004C096948794779467940A94D2F721E08C
:100DF00030E040E050E004C0220F331F441F551F75
:100E00006A95D2F721503040404050402A213B2182
:100E10004C215D21211531054105510521F021E0CD
:100E200030E040E050E059016A01A628B728C82800
:100E3000D9280BC0821593052CF01C01AA24BB24D1
:100E4000650103C0EE24FF24870111969C91D20115
:100E500011968C91981709F445C0992339F0A8018F
:100E600097012A193B094C095D0906C0A6019501A5
:100E70002E193F09400B510B57FD08C011823382D8
:100E8000228224833583468357831DC081E081837A
:100E90003382228288279927DC01821B930BA40BC3
:100EA000B50B84839583A683B7830DC0220F331FB0
:100EB000441F551F24833583468357838281938142
:100EC0000197938382832481358146815781DA019A
:100ED000C9010197A109B1098F5F9F4FAF4FBF4370
:100EE00028F30BC0918333822282EA0CFB1C0C1D79
:100EF0001D1DE482F5820683178383E080832481AD
:100F000035814681578157FF1AC0C901AA2797FD2D
:100F1000A095BA2F81709070A070B07056954795CB
:100F200037952795822B932BA42BB52B8483958300
:100F3000A683B78382819381019693838283DF01A5
:100F400001C0D201CD01CDB7DEB7E2E10C94450C72
:100F5000A0E2B0E0EEEAF7E00C94350C69837A8306
:100F60008B839C832D833E834F835887E9E0EE2E4D
:100F7000F12CEC0EFD1ECE010196B7010E94310B43
:100F80008E010F5E1F4FCE010596B8010E94310BF6
:100F90008A8991E089278A8BC701B801AE01475E33
:100FA0005F4F0E945C060E945C0AA096E6E00C94EB
:100FB000510CA0E2B0E0EFEDF7E00C94350C698342
:100FC0007A838B839C832D833E834F835887F9E0FC
:100FD000EF2EF12CEC0EFD1ECE010196B7010E9402
:100FE000310B8E010F5E1F4FCE010596B8010E9496
:100FF000310BC701B801AE01475E5F4F0E945C062E
:101000000E945C0AA096E6E00C94510CA8E1B0E0C6
:10101000ECE0F8E00C94310C69837A838B839C8339
:101020002D833E834F835887B9E0EB2EF12CEC0ED5
:10103000FD1ECE010196B7010E94310B8E010F5E9D
:101040001F4FCE010596B8010E94310B2985223031
:1010500008F47EC03989323010F4B8017CC08A852A
:101060009A8989278A87243011F0223031F4231796
:1010700009F06EC060E071E06EC0343039F41D8656
:101080001E861F86188A1C861B8604C0323021F4F7
:1010900084E08987B7015FC02B853C858B899C895B
:1010A000281B390B3C872B87ED84FE840F8518891C
:1010B000AD88BE88CF88D88CEA14FB040C051D05CA
:1010C00040F4EE0CFF1C001F111F215030403C87E4
:1010D0002B8720E030E040E050E080E090E0A0E0AE
:1010E000B0E460E070E0EA14FB040C051D0540F07C
:1010F000282B392B4A2B5B2BEA18FB080C091D09FE
:10110000B695A79597958795EE0CFF1C001F111FAC
:101110006F5F7F4F6F31710531F7DA01C9018F774A
:101120009070A070B07080349105A105B10561F494
:1011300027FD0AC0E114F1040105110529F0205C26
:101140003F4F4F4F5F4F20782D873E874F87588BFB
:10115000BE01675F7F4FCB010E945C0A6896EAE0A0
:101160000C944D0CA8E1B0E0E8EBF8E00C94350CE1
:1011700069837A838B839C832D833E834F83588737
:1011800089E0E82EF12CEC0EFD1ECE010196B70190
:101190000E94310B8E010F5E1F4FCE010596B801E4
:1011A0000E94310B8985823040F08989823028F095
:1011B000C701B8010E94A90B01C08FEF6896E6E055
:1011C0000C94510CA8E0B0E0E8EEF8E00C94320C7E
:1011D0009B01AC0183E08983DA01C9018827B7FD4F
:1011E00083959927AA27BB27B82E211531054105DC
:1011F000510519F482E089833AC08823A9F0203090
:1012000080E0380780E0480780E8580729F460E06C
:1012100070E080E09FEC30C0EE24FF248701E21AEA
:10122000F30A040B150B02C079018A018EE1C82E66
:10123000D12CDC82CB82ED82FE820F831887C8011D
:10124000B7010E940D0A01971816190684F4082E9A
:1012500004C0EE0CFF1C001F111F0A94D2F7ED8290
:10126000FE820F831887C81AD90ADC82CB82BA8221
:10127000CE0101960E945C0A2896E9E00C944E0C7F
:10128000ACE0B0E0E6E4F9E00C94390C69837A83D1
:101290008B839C83CE010196BE016B5F7F4F0E94C2
:1012A000310B8D81823061F1823050F1843021F434
:1012B0008E81882351F12EC02F81388537FD20C0C3
:1012C0006E812F3131051CF06623F9F023C08EE1C9
:1012D00090E0821B930B29853A854B855C8504C081
:1012E00056954795379527958A95D2F76623B1F09D
:1012F00050954095309521953F4F4F4F5F4F0EC011
:1013000020E030E040E050E009C02FEF3FEF4FEF2A
:101310005FE704C020E030E040E050E8B901CA01D6
:101320002C96E2E00C94550CA8E0B0E0EAE9F9E074
:101330000C94310C7B018C016115710581059105BF
:1013400019F482E0898360C083E089838EE1C82E2E
:10135000D12CDC82CB82ED82FE820F831887C801FC
:10136000B7010E940D0AFC013197F7FF3BC022270D
:1013700033272E1B3F0B57016801022E04C0D69461
:10138000C794B794A7940A94D2F740E050E060E085
:1013900070E081E090E0A0E0B0E004C0880F991F09
:1013A000AA1FBB1F2A95D2F70197A109B1098E2167
:1013B0009F21A023B1230097A105B10521F041E0B1
:1013C00050E060E070E04A295B296C297D294D835B
:1013D0005E836F8378878EE190E08E1B9F0B9C83EA
:1013E0008B8312C0309781F00E2E04C0EE0CFF1CD0
:1013F000001F111F0A94D2F7ED82FE820F83188717
:10140000CE1ADF0ADC82CB821A82CE0101960E94BC
:101410005C0A2896EAE00C944D0CEF92FF920F9331
:101420001F937B018C0180E0E81680E0F80681E0E4
:10143000080780E0180788F48FEFE816F10401052B
:10144000110531F028F088E090E0A0E0B0E017C08E
:1014500080E090E0A0E0B0E012C080E0E81680E01C
:10146000F80680E0080781E0180728F088E190E09E
:10147000A0E0B0E004C080E190E0A0E0B0E020E2B5
:1014800030E040E050E0281B390B4A0B5B0B04C0F6
:1014900016950795F794E7948A95D2F7F701E85FD8
:1014A000FE4F8081281B310941095109C9011F9153
:1014B0000F91FF90EF900895DF92EF92FF920F93BC
:1014C0001F93FC01E480F58006811781D180808123
:1014D000823048F480E090E0A0E1B0E0E82AF92A08
:1014E0000A2B1B2BA5C0843009F49FC0823021F445
:1014F000EE24FF24870105C0E114F1040105110564
:1015000019F4E0E0F0E096C0628173819FEF6238E9
:1015100079070CF05BC022E83FEF261B370B2A311E
:1015200031052CF020E030E040E050E02AC0B80166
:10153000A701022E04C076956795579547950A94A2
:10154000D2F781E090E0A0E0B0E004C0880F991FDE
:10155000AA1FBB1F2A95D2F70197A109B1098E21B5
:101560009F21A023B1230097A105B10521F081E0BF
:1015700090E0A0E0B0E09A01AB01282B392B4A2B78
:101580005B2BDA01C9018F779070A070B070803446
:101590009105A105B10539F427FF09C0205C3F4F33
:1015A0004F4F5F4F04C0215C3F4F4F4F5F4FE0E014
:1015B000F0E02030A0E03A07A0E04A07A0E45A0794
:1015C00010F0E1E0F0E079018A0127C06038710590
:1015D00064F5FB01E158FF4FD801C7018F77907088
:1015E000A070B07080349105A105B10539F4E7FE13
:1015F0000DC080E490E0A0E0B0E004C08FE390E094
:10160000A0E0B0E0E80EF91E0A1F1B1F17FF05C07F
:1016100016950795F794E794319687E01695079508
:10162000F794E7948A95D1F705C0EE24FF2487014B
:10163000EFEFF0E06E2F679566276795902F9F7705
:10164000D794DD24D7948E2F8695492F462B582F7B
:101650005D29B701CA011F910F91FF90EF90DF90B4
:101660000895FC01DB01408151812281622F6F7757
:1016700070E0221F2227221F9381892F880F822B3F
:10168000282F30E0991F9927991F11969C93119745
:1016900021153105A9F5411551056105710511F4B3
:1016A00082E037C082E89FEF13969C938E93129747
:1016B0009A01AB0167E0220F331F441F551F6A9543
:1016C000D1F783E08C930DC0220F331F441F551FA9
:1016D00012968D919C911397019713969C938E93DC
:1016E0001297203080E0380780E0480780E45807F0
:1016F00058F314962D933D934D935C93179708954B
:101700002F3F310579F4411551056105710519F433
:1017100084E08C93089564FF03C081E08C9312C031
:101720001C9210C02F57304013963C932E93129763
:1017300083E08C9387E0440F551F661F771F8A95BF
:10174000D1F7706414964D935D936D937C931797C6
:1017500008951F93DC01FB019C91923008F447C06F
:101760008081823008F443C0943051F411961C916A
:10177000843099F58181682F70E0611B71093FC049
:10178000843021F0923031F48230B9F181818823A4
:1017900089F12DC011961C9111978230F1F0818151
:1017A0001817D9F412962D913C9113978281938149
:1017B0008217930794F028173907BCF014968D917F
:1017C0009D910D90BC91A02D24813581468157813A
:1017D000281739074A075B0718F4112341F00AC09C
:1017E00082179307A407B50740F4112319F061E0AD
:1017F00070E005C06FEF7FEF02C060E070E0CB01EA
:101800001F910895AA1BBB1B51E107C0AA1FBB1F54
:10181000A617B70710F0A61BB70B881F991F5A957C
:10182000A9F780959095BC01CD01089597FB092EED
:1018300007260AD077FD04D0E5DF06D000201AF491
:10184000709561957F4F0895F6F7909581959F4F1C
:1018500008952F923F924F925F926F927F928F9254
:101860009F92AF92BF92CF92DF92EF92FF920F932F
:101870001F93CF93DF93CDB7DEB7CA1BDB0B0FB639
:10188000F894DEBF0FBECDBF09942A8839884888F6
:101890005F846E847D848C849B84AA84B984C8848C
:1018A000DF80EE80FD800C811B81AA81B981CE0F83
:1018B000D11D0FB6F894DEBF0FBECDBFED01089568
:0418C000F894FFCFCA
:1018C4000000000000000000000102020303030303
:1018D40004040404040404040505050505050505BC
:1018E400050505050505050506060606060606069C
:1018F4000606060606060606060606060606060684
:10190400060606060606060607070707070707076B
:101914000707070707070707070707070707070753
:101924000707070707070707070707070707070743
:101934000707070707070707070707070707070733
:10194400070707070707070708080808080808081B
:101954000808080808080808080808080808080803
:1019640008080808080808080808080808080808F3
:1019740008080808080808080808080808080808E3
:1019840008080808080808080808080808080808D3
:1019940008080808080808080808080808080808C3
:1019A40008080808080808080808080808080808B3
:1019B40008080808080808080808080808080808A3
:0819C4000808080808080808DB
:00000001FF
